:400000000010002011000000DD060000DD06000008B500F06BFBC04638B5194C23688022D20213432360182000F0D6FC2268154B13402360144A154B1A601022144B1A6077
:400040001032144B1A601032134B1A6080221206124B1A6000252560114A124B1A60124A124B1A60124A134B1A600920124900F07FFC092000F070FC104B1D6038BDC04630
:4000800000010B40FFFFFBFF0600008004010B40080202400C0202403002024008010B401000008000000240CF000080400002403801008080000240E90B00000C020B4057
:4000C00038B572B60122404B1A70002410E03F4863001A195200821891881B195B001A5AC31858880004104300F062FB0134E4B2022CECD9002412E0344DA3001A1952009E
:40010000AA18918AD08A00040843131C128B598B09041143802200F051FB0134E4B2002CEAD02A49081C2030403100F027FB80225200274B1A800123264A1370C0218903AB
:40014000254A11602549264A11609921254A11602549264A116080218904254A1160C0210905244A116099210904234A1160234A13600133224A1360224A10780221014398
:400180001170214C21783C208143283801432170107816210143117020211C4A1160C42189021B4A11601B4A13601B491B4A11601B4A13601B4A136031211B4A11601B4A32
:4001C0001360FFF729FF38BD1C700F405C10000000600F4002600F400000014099EE00000C000140100001400400990000500F4004500F4008500F4030500F4020000040B7
:4002000000800F4000700F4001700F40000004400800044000030440B10D0000080304401803044000040440080404401804044010B5064C2378002B07D1054B002B02D033
:40024000044800E000BF0123237010BD5001002000000000440F000008B5084B002B03D00748084900E000BF07480368002B00D108BD064B002BFBD09847F9E7000000007D
:40028000440F000054010020C80000200000000030B50EE0441C00784D1C0B78984204D00022064B1A70002006E0013AD2B2291C201C002AEED1012030BDC046BC0100202C
:4002C00008B5054805490222FFF7E2FF002802D00122034B1A7008BDC0010020480F0000AC01002008B5064B1A7806480649FFF7CFFF002802D00122044B1A7008BDC0462A
:40030000E8010020C00100204C0F0000B4010020F0B54F4680B462B600F0BEF900F08CFA13E0724B1B78002B0FD0FFF7DBFF704B1B78002B09D100246E4B1C606E48002160
:40034000142200F0E2FD694B1C70694B1B78002BE7D06A4B994600241C70644F3C70644E3470644D2C6064480021142200F0CDFD634800F0A3FAFA20800000F00BFB5E48AE
:400380000021142200F0C1FD4B461C703C7034702C605C4800F092FA5B4800F0FBFA05E0524B1B78002B01D0FFF78AFF534B1B78002BF5D00023514A13704C4A13704C4AF6
:4003C00013704C4A13604C480021142200F09DFD4E4800F073FAFA20800000F0DBFA05E0424B1B78002B01D0FFF76AFF434B1B78002BF5D00023414A13703C4A13703C4A79
:4004000013703C4A13603C480021142200F07DFD3F4800F053FAFA20800000F0BBFA05E0324B1B78002B01D0FFF74AFF334B1B78002BF5D000232D4A13702D4A13702D4A39
:4004400013602D480021142200F05FFD314800F0A1FA314B1B78002B28D0304C264D254E201C291C326800F058FD201C00F026FA254F381C00F08EFA00F01CFC381C00F021
:4004800089FA201C00F09CFCFA20800000F082FA00233360204A1370281C0021142200F034FD201C0021142200F02FFD1A4B5B78002BCED000F0C0F9194800F0FFF9124C90
:4004C000201C00F067FA174800F0F8F9201C00F061FA1A2000F0E6F907480021142200F014FD00220C4B5A70B3E7C046BC010020B4010020E8010020C0010020AC010020AC
:40050000580F0000600F0000DC0500006C0F00007C0F0000C40900006C01002098010020900F0000D401002010B500F095F9021C0021324B1960324B1B680B3B2C2B5BD80F
:400540009B003049CB589F460D2801D00A2803D12D4B1B68002B4FD001222B4B1A602B4B18701532264B1A6046E0432806D1173A234B1A600022244B1A603DE022490B6824
:400580005C1C0C602149C8540D2835D114321C4B1A6031E00A280CD1093A1D4B1A700A32174B1A60184A1368013B136000F068F922E0154A1368591C1160144AD0541622A9
:4005C0000F4B1A6018E00A2816D10F4B1B680F4AD05437220A4B1A600EE00D2806D1023A074B1A600A3A0B4B1A7005E0064A1368591C1160054AD05410BDC04694010020DD
:40060000B8010020A80F0000E8010020C0010020BC0100206C01002008B500F0BBFBC0B2194B1B68022B10D0032B1AD0012B2AD10D2828D00A2826D00122144B1A60144B1E
:4006400018700132104B1A601DE00D2802D103220D4B1A600D4A1368591C11600C4AD05411E00A2809D101230A4A1370064A136001225242054B1A6005E0044A1368591C5D
:400680001160034AD05408BDCC000020B0010020D40100206D01002008B50023084A1370084A1360084A1370084A13700B22084B1A60084800F038F9074800F0B3FB08BD12
:4006C000AC010020E8010020BC010020B4010020B8010020290500001906000008B500F0DFFB03680C2B00D1FEE7FEE770B50F4E0F4D13E029686B68AC68002202E001C971
:4007000001C30432A242FAD1E868002202E0002102C304328242FAD11035013E002EE9D100F0C4FBFFF7F4FDFEE7C046010000009C13000008B500230AE0032B03D89A0007
:400740000A49505800E00A4899000A4A885001332F2BF2D9FFF7B4FC0022074B1A608022D205116801230B43136008BD00000000DD06000000000020C0000020F0B5002551
:40078000002711E0BB00C658F3B2FF22964308E06A008A181478A419527822700135013BDBB2002BF4D10137072FEBD9F0BDC04608B50A1C002100F0A8FB08BD08B500F033
:4007C0009BFB08BD7222074B1A70523A064B1A701A3A064B1A704132054B1A700022054B1A70704781000F4080000F4023000F4033000F4082000F4010B500F02BFB041C39
:400800000A4A117820230B43137009490A7810231A43D2B20A70074A11780B43DBB2137000F090F8201C00F019FB10BD91000F4090000F4092000F4008B5064B1B78002B3C
:4008400004D1FFF7BFFF0122024B1A70FFF7D4FF08BDC0466E010020074B1B78DBB29A0606D5064A1078C0B21E221A4202D102E0002000E00020704760000F4041000F4034
:4008800008B500F0E7FA064B197801220A431A701A7801218A431A7000F0E0FA08BDC04691000F40034B1B785B07FBD4024B18707047C04662000F4042000F4038B5084B28
:4008C0001B78002B05D109E0FFF7ECFF0134A4B201E0051C0024285D0028F5D138BDC0466E010020014B18647047C0460000002010B5041C00F0AEFA044A1368C0218B4352
:40090000A4011C43146000F0A9FA10BD00E400E00122014B1A60704700E100E00122014B1A60704780E100E010B5041CFFF7F6FF201CFFF7D7FF0320FFF7DAFFFFF7E8FF32
:4009400010BDC046034A1368802109060B4313607047C046800002401F2318401E3B8340181C014B1860704700E100E001BE704738B5041C0D1C1F2802D90020FFF7F6FFED
:40098000A400034B9C4664442068256038BDC0464000002010B5041C06E0084B586800F04FFA074B9C46644480231B029C42F4D8024B9868604300F043FA10BDD00000201C
:4009C0000080FFFF08B5034B1B7B584300F038FA08BDC046D0000020F0B557464E46C0B483B0041C00F036FA0190E71E2D2F74D83F4B1B78DBB2A34208D33E4B1B78DBB252
:400A00009A463D4B1B78DBB2994631E03B4B1B78DBB2A34208D33A4B1B78DBB29A46394B1B78DBB2994623E0374B1B78DBB2A34208D3364B1B78DBB29A46354B1B78DBB24A
:400A4000994615E0334B1B78DBB2A34208D3324B1B78DBB29A46314B1B78DBB2994607E02F4B1B78DBB29A462E4B1B78DBB299462D4BDE5D2F2E09D92A2C07D919222B4B9A
:400A80001A60052000F0DCF9192503E0274B1D683F231D40AE4206D2234BDA5D234B1A60052000F0CDF91F4B9C4664442378DBB21F4A13601F4B52461A601F4B4A461A60E3
:400AC0000520FFF77FFFAE420AD9174BDA5D174B1A60052000F0B4F902E00020FFF746FF019800F0BBF903B00CBC91469A46F0BDC0F1FF0FC1F1FF0FC2F1FF0FC3F1FF0FF8
:400B0000C4F1FF0FC5F1FF0FC6F1FF0FC7F1FF0FC8F1FF0FC9F1FF0FCAF1FF0FCBF1FF0FCCF1FF0FCDF1FF0F441300002CFF0B4028FF0B401CFF0B4020FF0B40034B18680D
:400B4000C0231B02184000D00120704700010B4008B500F07FF9044A1368C02109020B43136000F07BF908BD00010B4010B500F071F908490A68084B1A408024E40122439C
:400B80000A600A6813408022120213430B6000F065F910BD00010B40FF3FFFFF70B5061C00F058F9041CFFF7C9FF002803D0FFF7DDFF012500E000250848331C0340084A5A
:400BC000106808490840184310601368012D01D1FFF7BEFF201C00F041F970BD0404040010020B40FBFBFBFF10B5244B1B685B0715D5234B1B685B070ED5224BD9690420F3
:400C000001401F4C22688A432260DA698243DA611B69002B00D098470420FFF7BFFF174B1B685B0518D5164B1B685B0510D5154BD9698022D2001140114802688A43026002
:400C4000D969114A0A40DA615B69002B00D098478020C000FFF7A2FF084B1B685B030CD5074B1B685B0304D5064B9B69002B00D098478020C002FFF791FF10BD10020B405B
:400C8000E400002070010020FFFBFFFF08B500F06FF808BD08B500F01DF808BD08B5044A1368802109060B431360FFF7EFFF08BD0000074008B5064B1B78002B04D1FFF7C9
:400CC000E9FF0122024B1A70FFF7E8FF08BDC0469001002010B5144A144B1A600023144A13600121134A1160134A14480260072413480460134803601348016013490A6094
:400D0000134A1360134A1360134A1360134A1360134A13600421134A1160134A13601268124B1A8010BDC0460B000002000007404000074048000740070000800003074061
:400D40000403074010030740440007400002074004020740880E0740C80E0740480F0740080F0740C80F0740880F07409201002005490B68F0229343603A13430B60034BB3
:400D80001A88034B1A6070470C00014092010020880F074008B500F06DF8002802D000F063F800E00020054B1A68D8239B001A4203D01A1C014B1A60002008BDC00F07404F
:400DC00038B5051C002402E000F05CF80134285D0028F9D138BDC046014BD8667047C0460000002010B5041C00F034F8044A13689B009B08A4071C43146000F02FF810BD23
:400E000008E400E080221201014B1A607047C04600E100E080221201014B1A607047C04680E100E010B5041CFFF7F4FF201CFFF7D3FF0320FFF7D6FFFFF7E4FF10BDC04608
:400E40000230800804D0C0460138FDD1C046C046C0467047EFF3108072B6704780F310887047C046C046C046014B18687047C04640030740024B1B680F2018407047C046C2
:400E800008030740044B1B680F221340082BF9D0024B18607047C0460802074040020740014B18687047C046480100200E4B70B500251E1C0D4CE41AA410A54204D0AB00F2
:400EC000F35898470135F8E700F056FA084B00251E1C084CE41AA410A54204D0AB00F35898470135F8E770BD8413000084130000841300008C130000002310B5934203D0F5
:400F0000CC5CC4540133F9E710BD031C8218934202D019700133FAE77047031C30B5002A07D00C7801335D1E013A2C700131002CF5D19A18934203D0002119700133F9E790
:400F400030BD0000000000004F4B00002B5042524541445900000000415445300D00000041542B434D47463D310D000041542B435343533D2247534D220D000041542B43E5
:400F80004E4D493D322C322C302C302C300D000041542B434D4753203D20223038303330373334383030220048050000F8050000F8050000F8050000F8050000F805000045
:400FC000F8050000F8050000F8050000F8050000F80500006A050000F8050000F8050000F8050000F8050000F8050000F8050000F8050000F8050000F8050000F8050000AF
:4010000094050000F8050000F8050000F8050000F8050000F8050000F8050000F8050000F8050000F8050000F8050000C6050000F8050000F8050000F8050000F805000076
:40104000F8050000F8050000F8050000F8050000F8050000F8050000DA05000000300F40800000310F40000300400F400004000080300F40C41200008000000003000F40E7
:401080000F300F4036310F406A320F4053330F400A400F4002410F4002600F4080388172820F0E0410011E022202240830013208340236043E155418560458045B045F0172
:4010C000020104200504068009400A800D080E4A10801210144016021718180419881B021D0A1E811F282410254026112D802FA8364937103D203E0A3F80451A47404C8096
:401100004E0857805A015E20600663406E146F01760A771880128742C071C2F9C4FCCAF0CCF0CEF0D0F0D220D621D80D000302140420051306C009130C400D010E200F0AFE
:401140001110120814E018E01C0A1D021E141F0920132204261528132A0C2B042C802E203010310C32E0340F351037033A203B083E013F014023410646EC47B0482C49FF7F
:401180004AFF4BFF4EF04F44500C5401580459045A045B045F0166C06A406B0280148571870E89808B138E038F089010924094DC952C962297439C0C9E71A620A810A97195
:4011C000AAACAB06AC09AED0AF0CB01FB1C0B30FB4E0B530B922BA20BB08BF10C002C604C9FFCA07CBFFCC40CD20CEF0CF05D008D804D904DA04DF01E040E1A8E240E320A1
:401200000002030205040681088009080B800D400E140F401025134014841620178018081A801B021D141E401F0821182340251026882740280529102F0831083680378191
:4012400038283A203B803E143F804110440446204C04503053405401569057205D0A5E405F2080848280832089028B208D488E849214968099089A019B019D049E109F40C8
:40128000A340A510A60CA810A910AA81AB40B040B320B648C0B9C2FDC4F7CA2CCC92CE7ED064D220D6F00A4067806E8086408740C210D880DA80E210E640AA40E8201001D2
:4012C000110100000010F300C30800004100000300040000FF3C0042F37F0C00821800001C00E3800F00F080043C00410C670018080000041C1F0F802C20C040008028025B
:40130000000000143206040001E00C0006FFFFFF62A0F0410C0000000000021104040404000000010000000000004002001030100010101200000000000000000000000046
:4013400000000000030405060708090A0B0C0E0F101112131415161718191B1C1D1E1F2021222325262728292A2B2E2F303132333435000043000000F8B5C046F8BC08BC0F
:401380009E4670475902000035070000F8B5C046F8BC08BC9E46704731020000B0130000C800002088000000A0000000000000000000000001000000010000000000E02E1F
:4013C000C05D00001800000000366E010404040000000000000000000000000000000000000000000000000000000000000000007413000000000000000000000000000080
:40140000000000000000000000000000000000000000000000000000000000000000000000000000000000000000000000000000E8000020000000000000000000000000A4
:40144000000000000000000000000000000000000000000000000000000000000000000000000000000000000000000000000000000000000000000000000000000000006C
:40148000000000000000000000000000000000000000000000000000000000000000000000000000000000000000000000000000000000000000000000000000000000002C
:4014C00000000000000000000000000000000000000000000000000000000000000000000000000000000000000000000000000000000000000000000000000000000000EC
:4015000000000000000000000000000000000000000000000000000000000000000000000000000000000000000000000000000000000000000000000000000000000000AB
:0200000490303A
:02000000109C52
:0200000490402A
:200000000000000000000000000000000000000000000000000000000000000000000000E0
:0200000490501A
:0C000000000204C81193110104CE222F4D
:0200000490600A
:0100000001FE
:00000001FF